:020000040800F2
:1000000068080020E9050008E1010008E301000894
:10001000E7010008EB010008EF0100080000000004
:10002000000000000000000000000000F5010008D2
:10003000F301000800000000F7010008F9010008C2
:10004000FB010008FD010008FF0100080102000893
:100050000302000805020008070200080902000860
:100060000B0200080D0200080F0200081102000830
:100070001302000815020008170200081902000800
:100080001B0200081D0200081F02000821020008D0
:1000900023020008250200082702000829020008A0
:1000A0002B0200082D0200082F0200083102000870
:1000B0003302000835020008370200083902000840
:1000C0003B0200083D0200083F0200084102000810
:1000D00043020008450200084702000849020008E0
:1000E0004B0200084D0200084F02000851020008B0
:1000F0005302000855020008570200085902000880
:100100005B0200085D0200085F020008610200084F
:10011000630200086502000867020008690200081F
:100120006B0200086D0200086F02000871020008EF
:1001300000F002F800F03CF80AA090E8000C8244BD
:100140008344AAF10107DA4501D100F031F8AFF29A
:10015000090EBAE80F0013F0010F18BFFB1A43F0A5
:10016000010318473405000054050000103A24BF6D
:1001700078C878C1FAD8520724BF30C830C144BF0C
:1001800004680C607047000000230024002500264E
:10019000103A28BF78C1FBD8520728BF30C148BFEA
:1001A0000B6070471FB500F070FA1FBD10B510BD91
:1001B00000F02FFA1146FFF7F5FF00F00AF800F003
:1001C0004DFA03B4FFF7F2FF03BC00F057FA00004A
:1001D00030BF00F057F9482000F0B6F900BFFEE745
:1001E000704700BFFEE700BFFEE700BFFEE700BFAD
:1001F000FEE7704770477047704770477047704719
:100200007047704770477047704770477047704736
:100210007047704770477047704770477047704726
:100220007047704770477047704770477047704716
:100230007047704770477047704770477047704706
:1002400070477047704770477047704770477047F6
:1002500070477047704770477047704770477047E6
:1002600070477047704770477047704770477047D6
:1002700070470000A24A0A400243A24B1A6070472E
:100280000146072323EA010212029F4B18684FF62A
:10029000FF0300EA03009D4B40EA030040EA02002E
:1002A0004FF0E023C3F80C0D704700B500209849CB
:1002B0000861C8601420486100208861C861084650
:1002C000006840F001000860084640689149084015
:1002D0008F494860084600688F4908408C4908608B
:1002E0000846006820F4802008600846406820F432
:1002F000FE0048600020886000214FF00060FFF79A
:10030000B9FF00BD10B58548006840F004004FF00B
:10031000E021C1F8100D7E48C06940F080507C4952
:10032000C8610846C06940F00060C8617C48406808
:1003300040F480707A4948600846006840F0040044
:1003400008600846006840F002000860FFF740FFC0
:1003500010BD6E48001D6C49086070472DE9F047DC
:100360008046894614461D462046E11704EB9171EC
:100370004FEAA10AE11704EB91718910A4EB810106
:10038000CFB2042000EBC700C7B22846FFF778FFC2
:10039000C5F1040008FA00F60F20284100EA090020
:1003A000064306F00F06202C0CDA5E4800684FF07A
:1003B000010101FA04F140EA01004FF0E021C1F827
:1003C00000010DE058480068A4F120014FF001023F
:1003D00002FA01F240EA02004FF0E021C1F8040104
:1003E000524850F82A0006FA07F108434F4941F8ED
:1003F0002A00BDE8F08770B503460846CE1701EB2A
:100400009676B410CE1701EB9676B610A1EB860661
:10041000B606350E3E48806940F001003C4EB061A2
:100420004FEAB63050F8240003FA05F60643404878
:1004300040F824603F4800684FF0010606FA01F6D4
:1004400040EA06003C4EC6F8000412F0010F0AD044
:100450003A4800684FF0010606FA01F640EA060045
:10046000354EC6F80C0412F0020F0AD0344800686A
:100470004FF0010606FA01F640EA06002E4EC6F8D5
:10048000080470BD10B50024FFF70FFF2048006876
:1004900040F480301E49086000BF1D480068400CD1
:1004A000FBD04FF480601A4948600846406840F429
:1004B000E01048600846406840F4803048602148B9
:1004C000006840F032001F4908601148006840F0A1
:1004D00080700F49086000BF0D480068400EFBD0D7
:1004E0000B48406840F002000949486005E00848B0
:1004F0004068C0F3870404F00304022CF7D110BD58
:1005000080FFFF1F08ED00E00CED00E00000FA05A1
:10051000001002400000FFF8FFFFF6FE10ED00E0C3
:100520000070004000E100E004E100E000E400E0D1
:100530000800014000040140000001400C0401409B
:1005400008040140002002404FF0E021096921F039
:1005500004014FF0E0221161C21700EB5272D21079
:100560001F4B1A70194609784FF47A7251431D4A8D
:100570001180704701461A4A12784A434FF0E0232F
:100580005A6100229A6101221A6100BF4FF0E022F5
:10059000106910F0010F02D010F4803FF6D0002255
:1005A0004FF0E0231A619A61704701460D4A1288A4
:1005B0004A434FF0E0235A6100229A6101221A61F6
:1005C00000BF4FF0E022106910F0010F02D010F4CC
:1005D000803FF6D000224FF0E0231A619A61704705
:1005E000000000200200002003480047034804499F
:1005F000044A054B704700003101000868000020E4
:1006000068080020680400206804002070477047D4
:100610007047754600F028F8AE4605006946534617
:1006200020F00700854618B020B5FFF7DFFFBDE8D2
:1006300020404FF000064FF000074FF000084FF049
:10064000000B21F00701AC46ACE8C009ACE8C009DA
:10065000ACE8C009ACE8C0098D4670470446AFF36A
:1006600000802046FFF7ADFD0048704704000020E1
:1006700001487047704700BF08000020014918205A
:10068000ABBEFEE726000200704710B5FFF7F0FF93
:100690004FF00001016010BDB80600080000002006
:1006A000040000006C010008BC06000804000020E3
:0C06B00064080000880100080000000041
:0400000508000131BD
:00000001FF
