:020000040800F2
:10000000F00D00206D3000081503000817030008EC
:100010001B0300081F030008230300080000000062
:10002000000000000000000000000000290300089C
:1000300027030008000000002B0300082D03000820
:100040002F030008310300083303000835030008BC
:1000500037030008390300083B0300083D0300088C
:100060003F0300084103000843030008450300085C
:1000700047030008490300084B0300084D0300082C
:100080004F030008510300085303000855030008FC
:1000900057030008590300085B0300085D030008CC
:1000A0005F0300086103000863030008650300089C
:1000B00067030008690300086B0300086D0300086C
:1000C0006F0300087103000873030008750300083C
:1000D00077030008790300087B0300087D0300080C
:1000E0007F030008810300088303000885030008DC
:1000F00087030008890300088B0300088D030008AC
:100100008F0300089103000893030008950300087B
:1001100097030008990300089B0300089D0300084B
:100120009F030008A1030008A3030008A50300081B
:1001300000F002F800F05CF80AA090E8000C82449D
:100140008344AAF10107DA4501D100F051F8AFF27A
:10015000090EBAE80F0013F0010F18BFFB1A43F0A5
:1001600001031847F8440000184500000A444FF006
:10017000000C10F8013B13F0070408BF10F8014B06
:100180001D1108BF10F8015B641E05D010F8016B4B
:10019000641E01F8016BF9D113F0080F1EBF10F8AF
:1001A000014BAD1C0C1B09D16D1E58BF01F801CBD2
:1001B000FAD505E014F8016B01F8016B6D1EF9D555
:1001C0009142D6D37047000000230024002500266A
:1001D000103A28BF78C1FBD8520728BF30C148BFAA
:1001E0000B6070471FB503F0C0FF1FBD10B510BDF9
:1001F00003F008F81146FFF7F5FF00F030F803F0C0
:1002000026F803B4FFF7F2FF03BC03F031F8000057
:1002100030BF000010B509220621002001F022FBAA
:1002200000232D4A2DA1184601F0DAFF2C48028840
:100230002CA1012001F067FF2C4802882CA102208C
:1002400001F061FF2C4802882CA1032001F05BFF24
:100250002C4802882CA1042001F055FF10BD002479
:1002600002F052FE482002F0B1FE00F09DF800F0CE
:1002700096F9274800F0DAFC0221002000F002FB8A
:100280000221012000F0FEFA0221084600F0FAFAED
:100290000221032000F0F6FA1DE000F091F9044677
:1002A000204601F083FA01F08AFA002000F007FBF3
:1002B0000B490880012000F002FB0C490880022055
:1002C00000F0FDFA0C490880032000F0F8FA0D490F
:1002D000088000F0BFFCE0E7000000205041300043
:1002E00004000020414443303D2564000600002006
:1002F000414443313D25640008000020414443321D
:100300003D2564000A000020414443333D2564003C
:100310000C000020704700BFFEE700BFFEE700BFF3
:10032000FEE700BFFEE770477047704770477047B1
:100330007047704770477047704770477047704705
:1003400070477047704770477047704770477047F5
:1003500070477047704770477047704770477047E5
:1003600070477047704770477047704770477047D5
:1003700070477047704770477047704770477047C5
:1003800070477047704770477047704770477047B5
:1003900070477047704770477047704770477047A5
:1003A00070477047704700001448806940F00400AF
:1003B000124988611248006820F00F001149C1F805
:1003C00004080846D0F8040840F003000C4908600F
:1003D0004FF001000C490860704700200A4908608E
:1003E0007047012008490860704710B5FFF7F5FF16
:1003F0000A2002F01CFEFFF7F4FF10BD00100240BF
:100400000408014000000140A00121429B4800680F
:10041000C0B270479A480068C0B2704799480068F7
:10042000C0B2704798480068C0B2704797480068EB
:10043000C0B2704796480068C0B2704795480068DF
:10044000C0B2704794480068C0B2704793480068D3
:10045000C0B2704792480068C0B270479148806946
:1004600040F001008F4988618F48406820F07F404C
:1004700040F080608C4948608A48806940F00C00F8
:10048000884988618948006820F00F008649C1F8D2
:10049000040C0846D0F8040C40F00800C1F8040C25
:1004A0000846D0F8040C20F0F000C1F8040C08460F
:1004B000D0F8040C40F08000C1F8040C0846D0F8D5
:1004C000000C20F47000C1F8000C0846D0F8000CB5
:1004D00040F40000C1F8000C0846D0F8000C20F0F1
:1004E0007060C1F8000C0846D0F8000C40F00060C5
:1004F000C1F8000C0846D0F8000C20F07040C1F89C
:10050000000C0846D0F8000C40F00040C1F8000C88
:100510000846D0F8040820F47000C1F80408084622
:10052000D0F8040840F40000C1F804080846D0F8E8
:10053000000C20F47040C1F8000C0846D0F8000C04
:1005400040F40040C1F8000C0846D0F8000C20F43C
:100550007020C1F8000C0846D0F8000C40F40020D0
:10056000C1F8000C0846D0F8040820F07060C1F80B
:1005700004080846D0F8040840F00060C1F80408F8
:100580000846D0F8040820F07040C1F80408084676
:10059000D0F8040840F00040C1F80408704710B5D6
:1005A000FFF75CFF10BD70B504462068804780F0FF
:1005B0000100C5B26079684028402071657170BD46
:1005C00010B5002400203A49087000BF41E03949C5
:1005D00051F82400FFF7E7FF364850F8240000796F
:1005E000012805D1334850F82400007A30490870BA
:1005F000304850F824004079012819D12D4850F88E
:100600002400C088401C2B4951F82410C880294878
:1006100050F82400C08864280ADD0020254951F8DC
:100620002410C880234850F82400407A20490870DC
:10063000204850F82400407948B91E4850F824005A
:10064000007920B900201B4951F82410C880601C93
:10065000C4B2082CBBDB1648007810BD10B5164894
:10066000FFF7A1FF1548FFF79EFF13484179134894
:10067000407901EB4000C0B210BD00002081214252
:100680002481214214812142188121421C8121426E
:10069000340121420C812142108121423801214242
:1006A0003C0121420010024000000140040C0140C6
:1006B000B00000207800002098000020A400002056
:1006C00070B502460B4614098E4D05EB842002F0EE
:1006D0000F04E51704EB5575ED10A4EBC505AD0649
:1006E000290E894CA4691509AD1C0126AE4034437E
:1006F000854DAC6102F00F04E51704EB5575ED1064
:100700000AD044680F258D40AC434460446803FA26
:1007100001F52C43446009E004680F258D40AC438B
:100720000460046803FA01F52C43046070BD70B5E1
:10073000044604F00F05744880692109891C0122D0
:100740008A4010437049886100212046FFF7B8FFB6
:100750006D48806940F400706B4988610846C06844
:1007600040F40070C8600846C06820F40070C8609B
:100770000846406820F4404048600846406840F41D
:100780000040486061480068614900EA0100614931
:10079000C1F804045D480068C1F804040846D0F8B4
:1007A000040420F48070C1F804040846D0F808045A
:1007B00020F00200C1F808040846D0F8080420F42C
:1007C0006020C1F808040846D0F8080440F460200E
:1007D000C1F808040846D0F8080440F48010C1F8B5
:1007E00008040846D0F8080420F40060C1F80804A2
:1007F0000846D0F82C0420F47000C1F82C040846F8
:10080000D0F82C044FF00000C1F82C0442480068D6
:1008100005EB45024FF0070101FA02F120EA010061
:100820003C49C1F810043C48006805EB45024FF014
:10083000070101FA02F140EA01003649C1F810044B
:100840000846D0F8080440F00100C1F80804084642
:10085000D0F8080440F00800C1F8080400BF2F4891
:10086000006810F0080FFAD12C48006840F004002E
:100870002849C1F8080400BF2848006810F0040F98
:10088000FAD170BD70B505460C4634B1012C09D0C3
:10089000022C0CD0032C0FD10DE003212846FFF7CA
:1008A0000FFF0AE008212846FFF70AFF05E0284667
:1008B000FFF73DFF01E000E000BF00BF70BD014653
:1008C0001748006820F01F00124AC2F83404144888
:1008D000006801F00F0240EA02000E4AC2F8340438
:1008E0001046D0F8080440F48000C2F8080400BFA5
:1008F0000C48006810F0020FFAD00B48006880B274
:10090000704700000008014000100240042401402C
:10091000FFFFF000002001401024014008240140A6
:1009200034240140002401404C240140B048806937
:1009300040F00800AE498861AE48006820F470605D
:10094000AD49C1F8040C0846D0F8040C40F44070DE
:10095000C1F8040C0846D0F8040C20F47040C1F82B
:10096000040C0846D0F8040C40F44050C1F8040CC4
:100970000846D0F8000C20F00F00C1F8000C084623
:10098000D0F8000C40F00300C1F8000C0846D0F885
:10099000000C20F0F000C1F8000C0846D0F8000C64
:1009A00040F03000C1F8000C704708210122934B41
:1009B0001A604FF00002924BC3F8A82115E010F026
:1009C000800F03D001228F4B1A6002E000228D4B72
:1009D0001A6001228C4B1A604FF00002884BC3F85A
:1009E000A8214FEA40624FEA12600A00A1F1010318
:1009F000D9B2E4D1704708210022804B1A60804BA5
:100A0000C3F8A82115E010F0800F03D001227D4B20
:100A10001A6002E000227B4B1A6001227A4B1A60B6
:100A20004FF00002764BC3F8A8214FEA40624FEA2C
:100A300012600A00A1F10103D9B2E4D1704730B5C8
:100A400004460D4605F1B001C8B2FFF7D4FF2109F5
:100A500041F01000FFF7CFFF04F00F00FFF7CBFFCE
:100A600030BD70B50646002415E004F1B001C8B2EF
:100A7000FFF7C1FF0120FFF7BEFF1020FFF7BBFF0C
:100A8000002504E03046FFF790FF681CC5B2802DBA
:100A9000F8DB601CC4B2082CE7DB70BD30B5002465
:100AA00015E004F1B001C8B2FFF7A5FF0120FFF780
:100AB000A2FF1020FFF79FFF002504E00020FFF7B2
:100AC00074FF681CC5B2802DF8DB601CC4B2082C12
:100AD000E7DB30BD10B5FFF729FF01204A49086068
:100AE0004FF000004649C1F880014FF00A0002F0C3
:100AF0009EFA0120454908604FF0AE00FFF77BFFEA
:100B00000020FFF778FF1020FFF775FF4020FFF768
:100B100072FF8120FFF76FFFCF20FFF76CFFA1204E
:100B2000FFF769FFC820FFF766FFA620FFF763FF06
:100B3000A820FFF760FF3F20FFF75DFFD320FFF7FE
:100B40005AFF0020FFF757FFD520FFF754FF802002
:100B5000FFF751FFD920FFF74EFFF120FFF74BFFC2
:100B6000DA20FFF748FF1220FFF745FFDB20FFF7F1
:100B700042FF4020FFF73FFF2020FFF73CFF02200D
:100B8000FFF739FF8D20FFF736FF1420FFF733FF03
:100B9000A420FFF730FFA620FFF72DFFAF20FFF7BF
:100BA0002AFF0020FFF75DFF00210846FFF747FFFF
:100BB00010BD70B506460024002500BF15E004F105
:100BC000B001C8B2FFF717FF0020FFF714FF102095
:100BD000FFF711FF002505E006EBC501085DFFF7F3
:100BE000E4FE6D1C802DF7DB641C082CE7DB70BD78
:100BF00000100240040C01400000014084812142A9
:100C000000802142AC812142A88121428081214281
:100C100010B5FFF75FFF10BD10B504462046FFF783
:100C2000C8FF10BD10B5FFF739FF10BD10B5044661
:100C3000FFF7EEFF4FF480611F4802F06CFA204688
:100C400000F0ADFD10BD10B54FF480611A4802F000
:100C500062FA10BD10B51848FFF7DEFFFFF7F3FF8B
:100C600010BDF0B50B4614460025802801D2402B5C
:100C700000D3F0BD0726A6EBD306F1B203F00702BE
:100C8000C2F107070126BE40F5B24CB10A4E06EB91
:100C9000C006765C2E43084F07EBC0077E5408E081
:100CA000054E06EBC006765CAE43034F07EBC0076C
:100CB0007E5400BFDDE700004801002029B1012972
:100CC00002D0FE2907D101E000BF00BFFF4B0CCBD3
:100CD000C0E900237047FD4B0CCBC0E9002300BFE7
:100CE000F8E72DE9FE4F0446884615461E460120CA
:100CF000029004F0FF0B31466846FFF7DFFF9DF8D6
:100D0000000030400290A5F12000C5B29DF802001D
:100D1000401E47B233E09DF80210019805FB010028
:100D200010F807904FF0000A23E019F0800F05D06B
:100D300041462046029AFFF794FF09E0029808B95D
:100D4000012000E00020C2B241462046FFF789FFA3
:100D50004FEA49604FEA1069641CA4EB0B000828B5
:100D600003D15C4608F1010806E00AF1010000F039
:100D7000FF0ABAF1080FD8DB00BF781E47B2002F78
:100D8000C9DABDE8FE8F2DE9FC41064688461446C7
:100D90001F46002539466846FFF790FF0AE0625D6E
:100DA0003B4641463046FFF79CFF9DF80100064454
:100DB000681CC5B2605D0028F1D1BDE8FC812DE959
:100DC000FF4F9FB01D461F9800F0FF0800201C90A9
:100DD00003201B9001200C90219908A8FFF76EFFBB
:100DE0000020129010904BE215F8011B4CB204B990
:100DF0004AE2252C0BD0E2B24046DDE92013FFF792
:100E000070FF9DF82100404400F0FF0833E200200D
:100E10008146834600BF199015F8011B4CB2302C57
:100E200005D14FF0010915F8011B4CB20EE02D2C35
:100E300005D14FF0020915F8011B4CB206E02E2C2B
:100E400004D101201C9015F8011B4CB218E01C982D
:100E500001280BD1199800EB800004EB40003038DA
:100E6000C0B2199015F8011B4CB209E00BEB8B00D6
:100E700004EB4000303800F0FF0B15F8011B4CB2BA
:100E8000302C01DB392CE2DD1C98012807D11998A0
:100E9000072801DD072000E01998C0B21B906C2CD8
:100EA00001D04C2C04D149F0040915F8011B4CB2B7
:100EB00004B9E9E12746612C04DB7A2C02DCA7F1B6
:100EC000200047B24F2F78D008DC422F76D0432F36
:100ED00064D0442F73D0462F72D173E0532F04D0C7
:100EE000552F6ED0582F6BD122E12C9800681390AB
:100EF0002C98001D2C904FF0000A03E00AF101002D
:100F000000F0FF0A139810F80A000028F6D1CDF877
:100F10003CA0119019F0020F15D10EE0202240469E
:100F2000DDE92013FFF7DDFE1198401C00B211909F
:100F30009DF82100404400F0FF085046411C01F09C
:100F4000FF0A5845EADB4046DDE92013139AFFF714
:100F50001AFF9DF821100F9801FB008000F0FF0898
:100F60000F991198084400B211900EE020224046DB
:100F7000DDE92013FFF7B5FE1198401C00B2119077
:100F80009DF82100404400F0FF085046411C01F04C
:100F9000FF0A5845EADB119810906CE12C9802C8C2
:100FA000CAB22C904046DDE92013FFF79AFE9DF867
:100FB0002100404400F0FF085DE1B2E0AEE0B3E0A4
:100FC000B9E0B2E02C98C01D20F0070001462C903B
:100FD000006849682C9A08322C92CDE90A01002257
:100FE0001346DDE90A0102F00FFC0BD21B9840F01A
:100FF00008001B900022364BDDE90A0102F040FC9C
:10100000CDE90A01DDE90A0102F076FB00B20E909B
:101010001B9800F007001A9009E00C9800EB800084
:10102000400000B20C901A98401EC0B21A901A9854
:10103000401EF2D50E9802F0BCFBCDE90001DDE9BF
:101040000A2302F051FDCDE904010C9802F0B1FB36
:10105000CDE90201DDE9042302F012FCCDE906012D
:1010600002F04AFB00B20D9000261B9800F007002A
:101070001A901CE00D98A0B10A210D9890FBF1F296
:1010800001FB120047B20D9890FBF1F000B20D90F9
:1010900007F1300042B23046711CCEB214A90A5496
:1010A00005E030223046711CCEB214A90A541A98B9
:1010B000411EC9B21A910028DCD12E223046711C83
:1010C000CEB214A90A5400BF0A2103E0B4000020E4
:1010D0000000F0BF0E9890FBF1F201FB120047B246
:1010E0000E9890FBF1F000B20E9007F1300042B282
:1010F0003046711CCEB214A90A540E9808B1102EB5
:10110000E2D31B9810F0080F05D02D223046711C39
:10111000CEB214A90A5400201C906AE002201D904F
:1011200017E008201D9014E000BF0A201D9010E079
:1011300010201D900DE0E2B24046DDE92013FFF7DC
:10114000D0FD9DF82100404400F0FF0801201090E0
:1011500091E000BF19F0040F05D02C9800682C997D
:10116000091D2C910CE0442F05D12C9800682C9976
:10117000091D2C9104E02C9800682C99091D2C91D4
:101180001890442F08D1189810F0004F04D01898E8
:101190004042189049F00809002600BF1D99189890
:1011A000B0FBF1F201FB120047B21D991898B0FB99
:1011B000F1F01890092F06DD782C01D1272000E0EE
:1011C0000720384447B207F1300042B23046711C64
:1011D000CEB214A90A54189808B1102EDED319F013
:1011E000080F05D02D223046711CCEB214A90A5426
:1011F00000BFB24619F0010F01D0302000E02020DE
:1012000047B20AE0FAB24046DDE92013FFF769FD74
:101210009DF82100404400F0FF0819F0020F05D1AD
:101220005046411C01F0FF0A5845EBDB00BF701E21
:10123000C0B2064614A90A5C4046DDE92013FFF758
:1012400050FD9DF82100404400F0FF08002EEED133
:101250000AE0FAB24046DDE92013FFF742FD9DF8AF
:101260002100404400F0FF085046411C01F0FF0AF5
:101270005845EEDB00BF10991298084400B2129056
:101280001098401C7FF4B0AD00BF23B0BDE8F08FD4
:101290000FB47CB504460D4616460AA80190019885
:1012A0000090324629462046099BFFF788FD7CBC0A
:1012B0005DF814FB2DE9F04106460F4615461C4625
:1012C00015F0030006D001282AD0022808D00328F0
:1012D00025D114E0002239463046FFF7C2FC25E054
:1012E00014F0010F05D0012239463046FFF7B9FC52
:1012F00004E0002239463046FFF7B3FC16E004F064
:101300000300022805D3012239463046FFF7A9FC25
:1013100004E0002239463046FFF7A3FC06E000BF98
:10132000012239463046FFF79CFC00BF00BFBDE8F4
:10133000F0812DE9FF4F81B081460398A0EB0900B1
:1013400004B202990498401A05B2002C01DD012074
:1013500000E000200121C1EB40000FFA80FA002DCF
:1013600001DD012000E000200121C1EB40000FFA67
:1013700080FB0FFA89F702980FFA80F8002000909E
:101380000026002C01DA604200E0204604B2002D65
:1013900001DA684200E0284605B2AC421EDD0FFAD1
:1013A00089F716E00098401C009041463846009BA3
:1013B0000E9AFFF77FFF701906B2B4EB460F05DCFB
:1013C00008EB0B000FFA80F8301B06B207EB0A009F
:1013D00007B203985044B842E4D11EE002980FFAD5
:1013E00080F816E00098401C009041463846009B6B
:1013F0000E9AFFF75FFF301906B2B5EB460F04DC1B
:1014000007EB0A0007B2701B06B208EB0B000FFADD
:1014100080F8049858444045E4D105B0BDE8F08F09
:101420002DE9F84F04460D4690464FF0000B002D75
:1014300001DCBDE8F88F012D08D154F8049BD4F8E5
:1014400000A0012251464846FFF70BFC54F8049BCC
:1014500054F804AB4FF0010B0FE040CC80CC3B467E
:10146000324651464846CDF80080FFF762FFB1464C
:10147000BA460BF1010000F0FF0BAB45EDDB00BFFE
:10148000D7E72DE9F84F06460C4617461D46DDF80E
:1014900028804FF00009CA4618F0040F02D1B8F1B5
:1014A000000F35D1BE4202D9B1463E464F46AC424E
:1014B00002D9A1462C464D46B8F1000F02D14FF09B
:1014C000000A01E04FF0010AAC4209D123463A4636
:1014D00021463046CDF800A0FFF72BFFBDE8F88F7E
:1014E000BE4208D12B46324621463046CDF800A0F8
:1014F000FFF71FFFF2E708E023463A462146304651
:10150000CDF800A0FFF715FF641CAC42F4D91FE032
:101510002B46324621463046CDF80080FFF709FFC2
:101520002B463A4629463046CDF80080FFF701FFAA
:101530002B463A4621463846CDF80080FFF7F9FEA3
:1015400023463A4621463046CDF80080FFF7F1FEAB
:1015500000BFC3E72DE9F84F06460F46904699466F
:1015600000241FFA88F50320A0EB48000FFA80FA48
:1015700065E0B9F1040F20D1012300937B19321BE0
:1015800079193019FFF7D5FE012300937B1B321B1D
:10159000791B3019FFF7CDFE012300933B19721B15
:1015A00039197019FFF7C5FE012300933B1B721B0D
:1015B000391B7019FFF7BDFE27E0791930194A462B
:1015C000FFF74FFB7919301B4A46FFF74AFB791B9F
:1015D00030194A46FFF745FB791B301B4A46FFF797
:1015E00040FB391970194A46FFF73BFB3919701B4C
:1015F0004A46FFF736FB391B70194A46FFF731FBA5
:10160000391B701B4A46FFF72CFB601C84B2BAF1F1
:10161000000F0EDB681E85B2A0000FFA80FBABEB5B
:1016200085000FFA80FB0BF10A0050440FFA80FA94
:1016300005E0062000EB840050440FFA80FAA54232
:1016400097DCBDE8F88FF0B50446059DC80800FB9F
:101650000320005D01F00706C6F107070126BE4022
:10166000304201D0012000E00020C0B2F0BD2DE9E1
:10167000F84F07460E4693469946DDE90A8A00244C
:101680000025464400BF21E000241BE04B465A469B
:1016900021462846CDF80080FFF7D5FF28B1311B41
:1016A00078195246FFF7DDFA0AE0BAF1000F01D1CE
:1016B000012300E00023DAB2311B7819FFF7D1FAD9
:1016C000601C04B24445E1D3681C05B24D45DBD330
:1016D000BDE8F88F4C4800210160017100204A49A3
:1016E00048718871704748498979474A5054114672
:1016F0008979491CC9B29171052901DB00219171D9
:10170000704741484079404A9279904201D1002087
:1017100070473D4840793C4A115C10464079401C76
:10172000C0B25071052801DB002050710846EFE778
:10173000F8B5044600BF00BF206801F0CDFC001DD5
:1017400000EB40004006060EC6F18000C0F34705DE
:10175000236800932DA301223821A81CFFF798FDD0
:10176000012300933923AA1C19460620FFF7E1FD47
:101770000123A919881E0093392379221946FFF7FE
:10178000D8FD606850B12348007838B985230093AC
:1017900021A3012238210020FFF77AFDF8BD00B512
:1017A00002461E480260FFF795FF00BD00B50346E4
:1017B0001846FFF798FF00BD19480078704710B52C
:1017C000FFF79FFF1649087014480068FFF7B0FF45
:1017D000124909688868804711480078602812D14A
:1017E0000C48007878B90D480068406858B10B483B
:1017F000006840680949086000200A4909680870C3
:1018000008490968487010BDC40000205B2025739A
:10181000205D0000BD00002025630000C000002006
:10182000BC000020380100200146FA4800684078DA
:10183000081A0AD4F74800684078081AF54A12686E
:10184000D278904201DC012070470020FCE701467D
:10185000F04800688078401AEE4A126852781044C6
:10186000C00070472DE9F04F8BB0064688461746FA
:101870004FF0000900200A9082460990834600BF7D
:101880000890464503DA0A964646DDF82880102F70
:1018900000DD1027DF4800688670A6EB0800DD49F0
:1018A0000968C870DB480068C078B84203DB781E5E
:1018B000D8490968C870FFF77FFF8246BAF1500F18
:1018C0001FD1D4480068007800280ADDD24800788B
:1018D00038B9D04800680078401ECE4909680870C1
:1018E00039E0CC4800684078002834DDCA480078E8
:1018F00088BBC84800684078401EC64909684870DF
:1019000029E0BAF1200F26D1C24800680078C14909
:101910000968C97888420ADABF48007838B9BD48F2
:1019200000680078401CBB490968087013E0B9489A
:1019300000684178B7480068C078381A401E814274
:1019400009DAB548007830B9B24800684078401CE0
:10195000B04909684870AF4800684078AD490968E7
:101960000978084400F0FF0BF000AA4909684860B4
:101970004FEAC800A74909688860A648006841681E
:10198000A44800680078A1EBC000C0B2099086238B
:101990000093A2A3012200200999FFF779FC062EEB
:1019A0000FD002239B4800930068406800F10803B1
:1019B00098480068406800F108017F220020FFF786
:1019C000B8FC6EB102239348009300688068431E00
:1019D000904800688068411E7F220020FFF7A9FC24
:1019E000384601F0FDFECDE906018A4909684968DB
:1019F000884A12689268891A01F1080001F0F0FE25
:101A0000CDE90401DDE9062301F01EFD04460D4683
:101A10000BF1010001F0CDFE22462B46CDE900017D
:101A200001F02EFFCDE904017A4909684968C81D13
:101A300001F0D6FECDE90201DDE9042302F060F8F1
:101A4000CDE9060101F088FE0890089801F0C8FE73
:101A500022462B46CDE9020101F044FCCDE9040108
:101A600001F07AFE04230093079003467F227C2036
:101A70000899FFF706FD0123664800930068406857
:101A8000C31D644800687F2281687C20FFF7F9FC51
:101A90004FF000090BE0CB4501D1012000E0002010
:101AA0005F4901F8090009F1010000F0FF09B9459B
:101AB000F1DD0BB0BDE8F08FF8B504460D46002609
:101AC00000275548007810F0020F00D0F8BD102C08
:101AD00000DBFBE72046FFF7A7FE012836D12046B2
:101AE000FFF7B5FE06464E48005D01280DD1FFF711
:101AF00063FE0746402F08D14A480560002045494B
:101B0000096808704349096848702B68009346A328
:101B1000012231460620FFF7BBFB872300933FA33A
:101B2000012231467320FFF7B3FB3A480068407842
:101B30003849096809780844A04207D184230093F2
:101B400036A3012238217A20FFF7A2FB00BFBDE7B0
:101B50002DE9F04106460027002E01DB304600E06B
:101B600070424FFA80F80024304D002714E0002E18
:101B700008DB00222E4B2046294601F081FE044658
:101B80000D4607E02B4A2C4B2046294601F078FEF3
:101B900004460D46781C07B24745E8DB2046294637
:101BA000BDE8F0812DE9FF4F8FB092461CAE96E85C
:101BB000C00300200B900A9000210C460D460990AE
:101BC000089083460790069005901348007810F01F
:101BD000020F02D013B0BDE8F08F42464B463046AC
:101BE000394601F011FE05D2CDE90C6746464F4655
:101BF000DDE90C890F98102800DBEBE7BAF1060F3E
:101C000028D2DFE80AF0031B281E2124209809901F
:101C100024E0000038010020BD0000202563000002
:101C20007D050020C0000020257300000000F03F6B
:101C3000000024409A9999999999B93F2098089061
:101C40000CE02098079009E02098069006E0209884
:101C5000059003E000BFDDF880B000BF00BF0F9823
:101C6000FFF7E2FD01287ED10F98FFF7F0FD0B9002
:101C7000F9490F98085C012876D1FFF79DFD0A907D
:101C80000A98402805D1F548007880F00100F34912
:101C90000870F248007810F0010F65D0F04890F914
:101CA0000000FFF755FF04460D460A9850287CD1E6
:101CB000BAF1060F7AD2DFE80AF00320953C5A7A8F
:101CC000099991F9000001F074FD22462B46CDE9F7
:101CD000000101F007FB32463B46CDE9020101F06D
:101CE00093FD09D82046294601F006FD0999097897
:101CF000084441B20998017090E00899087801F011
:101D00006FFD22462B46CDE9000101F0EBFA324689
:101D10003B46CDE9020101F077FD09D8204629466E
:101D200001F01AFD089909780844C1B208980170B9
:101D300074E00799086801F03CFD22462B46CDE986
:101D4000000101F0CFFA32463B46CDE9020101F035
:101D50005BFD0BD82046294601F0CEFC07990968A7
:101D60000144079801E0CCE11EE1016056E00699CC
:101D7000086801F0AFFF22462B46CDE9000101F0D3
:101D8000B1FA32463B46CDE9020101F03DFD0BD8E8
:101D90002046294601F074FA0490069801680498D8
:101DA00001F0C4FF0699086038E038E019E00599B1
:101DB00003C922462B46CDE9000101F093FA3246D1
:101DC0003B46CDE9020101F01FFD09D8059903C981
:101DD00022462B46CDE9020101F084FA059A03C29E
:101DE0001CE000BFBBF9000001F0E3FC22462B46DB
:101DF000CDE9000101F076FA32463B46CDE9020119
:101E000001F002FD09D82046294601F075FCBBF817
:101E10000010084400B2ABF8000000BFE6E00A98EA
:101E2000202879D1BAF1060F77D2DFE80AF0032033
:101E3000923C5777099991F9000001F0BAFC2246CB
:101E40002B46CDE9000101F05BFE42464B46CDE951
:101E5000020101F013FE09D82046294601F04CFC8E
:101E600009990978081A41B2099801708DE008991A
:101E7000087801F0B5FC22462B46CDE9000101F0BF
:101E80003FFE42464B46CDE9020101F0F7FD09D87D
:101E90002046294601F060FC08990978081AC1B269
:101EA0000898017071E00799086801F082FC2246E9
:101EB0002B46CDE9000101F023FE42464B46CDE919
:101EC000020101F0DBFD08D82046294601F014FC90
:101ED00007990968091A0798016056E00699086889
:101EE00001F0F8FE22462B46CDE9000101F008FE84
:101EF00042464B46CDE9020101F0C0FD0BD8204619
:101F0000294601F0BDF9049006980168049802F092
:101F100038F90699086038E038E019E0059803C8F8
:101F200022462B46CDE9000101F0EAFD42464B4630
:101F3000CDE9020101F0A2FD09D8059803C82246A7
:101F40002B46CDE9020101F0DBFD059A03C21CE03E
:101F500000BFBBF9000001F02CFC22462B46CDE966
:101F6000000101F0CDFD42464B46CDE9020101F0F2
:101F700085FD09D82046294601F0BEFBBBF80010BC
:101F8000081A00B2ABF8000000BF2FE00A98302812
:101F90000BD1334890F90000042827DA3048007844
:101FA000401C40B22E49087020E00A9810281DD12C
:101FB000BAF1040F02D0BAF1050F0CD1284890F9FC
:101FC000000010F1030F11DD25480078401E40B2DB
:101FD000234908700AE0224890F90000002805DD36
:101FE0001F480078401E40B21D490870BAF1060F24
:101FF00048D2DFE80AF0030E4818223B099890F90E
:102000000030009317A3012244200B99FFF740F9F9
:1020100044E008980378009312A3012244200B990E
:10202000FFF736F93AE00798036800930DA3012201
:1020300044200B99FFF72CF930E00699086801F06D
:1020400049FECDE9020108A30122CDE900014420A7
:102050000B99FFF71DF921E07D050020BD00002050
:102060003C0100202564000025660000059903C995
:10207000AFF20C030122CDE9000144200B99FFF7D8
:1020800007F90BE000BFBBF900300093AFF22C035F
:10209000012244200B99FFF7FBF800BF00BFFB486B
:1020A000007810F0010F11D0F9490F98085C012851
:1020B0000CD18323CDE90245049382230093F5A339
:1020C000FE2200200B99FFF7E3F808E0109B009335
:1020D000AFF2AC43012206200B99FFF7D9F8EF4885
:1020E00000684078ED490968097801440F988142F9
:1020F00007D184230093E8A3012238217A20FFF737
:10210000C7F800BF66E50FB47CB504460025102C67
:1021100002DB7CBC5DF814FB2046FFF785FB012841
:102120000ED12046FFF793FB054608A801900198C1
:102130000090012229460620079BFEF740FE00BFC3
:1021400000BFE6E72DE9F84304460D461646002792
:10215000B846B946CD48007810F0020F01D0BDE86E
:10216000F883102C00DBFAE72046FFF75DFB01281F
:1021700034D12046FFF76BFB0746C548005D0128B8
:1021800007D1FFF719FB8046B8F1400F01D14FF09E
:102190000109AFF26C530122394606200095FFF782
:1021A00077F8BFA3012239464420FFF771F8B9F14F
:1021B000010F02D14FF00009B047B84800684078DD
:1021C000B649096809780844A04207D184230093DE
:1021D000B1A3012238217A20FFF75AF800BFBEE7E9
:1021E0002DE9F84F04460F4615461E464FF00009EC
:1021F000CA46012000FA06F8A448007810F0020F41
:1022000001D0BDE8F88F012E01DB202E00DD012674
:10221000102C00DBF5E72046FFF706FB01283BD139
:102220002046FFF714FB81469948005D012809D13B
:10223000FFF7C2FA8246BAF1400F03D1286880EA5C
:1022400008002860AFF2206301224946062000976B
:10225000FFF71EF8286810EA080F06D091A30122A4
:1022600049464420FFF714F805E090A301224946AF
:102270004420FFF70DF889480068407887490968CD
:1022800009780844A04207D18423009382A3012245
:1022900038217A20FEF7FCFF00BFB2E770B5044694
:1022A0000E461546284600F017FFA04205D92246E3
:1022B0002946304600F078FF03E02946304600F01A
:1022C000E7FE70BD2DE9FF4F85B0814692469B46E3
:1022D000002004900027002400250026BAF1290FD1
:1022E00002DA0AF1010000E029201FFA80F8B9F1B2
:1022F000100F02DB09B0BDE8F08F4846FFF794FAF3
:10230000012878D14846FFF7A2FA0490604810F8F7
:10231000090001286ED1FFF74FFA0746402F2CD154
:102320006448008818BB6448008800BB57480078A0
:1023300010F0020F0BD05548007820F002005349EE
:1023400008705E4A59465046FFF7A8FF15E04F480F
:10235000007840F002004D4908702921574800F0EC
:10236000FCFE5A4655494046FFF798FF05E04748AE
:10237000007880F00400454908704448007810F067
:10238000020F37D04B4800884B490988132202FBC3
:10239000010086B2502F3ED13C48007810F0040F67
:1023A0002AD047480068017845480068001D50F869
:1023B0002100017842480068027841480068001D09
:1023C00050F82200007A401E814215DA3C4800682D
:1023D00001783B480068001D50F821000078401C3F
:1023E000C1B237480068027835480068001D50F8CF
:1023F00022000170B2E0EDE12448007810F0040FF3
:1024000008D12D480088002804DD2B480088401E94
:1024100029490880A2E0202F54D11C48007810F0F0
:10242000040F1FD026480068017825480068001D69
:1024300050F821000078002814DD21480068017858
:102440001F480068001D50F821000078401EC1B2EE
:102450001B48006802781A480068001D50F82200E6
:1024600001707BE00948007810F0040F76D1124823
:102470000088042872DA06F1130040456EDA0E482F
:102480000088401C0C49088068E00000BD00002066
:102490007D050020256325662563000038010020A6
:1024A0002D3E00005B4F4E205D0000005B4F464616
:1024B0005D0000003E010020400100205405002086
:1024C00034010020302F20D1FF48007810F0040F95
:1024D0000CD0FE4800680078002807DDFB48006843
:1024E0000078401EF9490968087037E0F64800781E
:1024F00010F0040F32D1F648008800282EDDF44891
:102500000088401EF249088028E0102F26D1EE48AE
:10251000007810F0040F10D0EC4800680178EB4808
:1025200000684078401E814207DAE8480068007879
:10253000401CE6490968087010E0E348007810F094
:10254000040F0BD1E2480088122807DA701C4045BE
:1025500004DADF480088401CDD490880DA4800784A
:1025600010F0020F75D0FEF76EFB012300933F239E
:102570007F2200210846FEF784FF012300930923F0
:102580007F2219460020FEF7D4FECF48007810F0D5
:10259000040F41D0CD4800680178CC480068001D88
:1025A00050F82100C168C94800680278C74800682F
:1025B000001D50F822000078095C701EC54A1154B5
:1025C000C24800680178C1480068001D50F8210029
:1025D00043680093AFF6B013012211460220FEF7C4
:1025E00057FEBA4800680178B8480068001D50F8E6
:1025F0002100C168B54800680278B4480068001D31
:1026000050F8220000780B5C0093B3A3012211461E
:102610004020FEF73DFE1AE0B148008848B9AC48BA
:10262000008830B9AFA3012211460220FEF730FE28
:102630000DE0A74803885B1CA9480288521CCDE91D
:102640000023AAA3012211460220FEF721FE002446
:102650007DE07FE0002576E0D4B9CDB99C480088C4
:1026600060B99F48008848B985230093AFF2D8131A
:10267000FE2230210620FEF70BFE62E08523009348
:10268000AFF2EC13012230210620FEF701FE58E0E4
:10269000132000FB0450401E86B246454FDA8C489A
:1026A0000088A84227D18E480088A04223D18948BB
:1026B000805D78B989233022A2EBC40105EB450285
:1026C0000093062303EB4200AFF23423FE22FEF711
:1026D000DFFD36E07F48835D3022A2EBC40105EBCD
:1026E00045020093062303EB4200AFF25423FE227F
:1026F000FEF7CEFD25E07748805D78B9892330224A
:10270000A2EBC40105EB45020093062303EB420054
:10271000AFF27C230122FEF7BBFD12E06D48835D22
:102720003022A2EBC40105EB45020093062303EB24
:102730004200AFF29C230122FEF7AAFD01E008242B
:102740001525681C85B2132D86DB601C84B2052C10
:1027500080DB2DE0069B0093AFF634330122062088
:102760000499FEF795FD5A4602A90720FFF796FD4A
:1027700002AB0093AFF65033012244200499FEF7D8
:1027800087FD584600F0A8FC072808D98923009344
:10279000AFF2FC2301226D200499FEF779FD882316
:1027A0000093AFF20C33012273200499FEF770FD01
:1027B00051480068407850490968097808444845FC
:1027C00008D184230093AFF23033012238217A20DC
:1027D000FEF75EFD00BF8DE50FB47CB504460D46E7
:1027E00016463948007810F0020F02D07CBC5DF824
:1027F00014FB0AA801900198009032462946204611
:10280000099BFEF7DCFA00BFF0E72DE9FF4F87B028
:1028100007460E4691469846DDF85CB0DDF854A0B8
:102820000020059000BF04902748007810F0020FA8
:1028300002D00BB0BDE8F08F1498504505DA14981B
:102840000590CDF850A0DDF814A014991698884290
:1028500001DA169800E0149816901698504501DD9C
:10286000169800E0504616901499A1EB0A0000F06B
:10287000A0FFCDE902011699A1EB0A0000F099FF33
:10288000CDE90001DDE9022300F0DEFD04460D463E
:102890001BF0010F64D1484600F0A2FF22462B46F0
:1028A000CDE9000100F0ECFFCDE9020100F054FF9A
:1028B00004901BF0060F2FD10123009306EB0803B1
:1028C00007EB0902314619E0BD0000203401002069
:1028D0003E010020540500205B202563205D0000A0
:1028E000400100204241434B000000004C3A256467
:1028F00020433A2564000000380100203846FEF7E6
:10290000C0FD0423009306EB080304983A183146EF
:102910003846FEF7B6FD6AE00BF00600022866D1E5
:102920000123009306EB080307EB09023146384602
:10293000FEF7A7FD0123009306EB080304983A185D
:1029400031463846FEF79DFD0023009306EB080351
:1029500007EB090206EB08013846FEF7EAFC46E001
:10296000404600F03DFF22462B46CDE9000100F035
:1029700087FFCDE9020100F0EFFE04901BF0060F87
:1029800014D10123009306EB080307EB090231463B
:102990003846FEF776FD042300930498331807EBBE
:1029A000090231463846FEF76CFD20E00BF00600C8
:1029B00002281CD10123009306EB080307EB090250
:1029C00031463846FEF75DFD012300930498331825
:1029D00007EB090231463846FEF753FD002300930A
:1029E00006EB08033A4631463846FEF7A2FC00BF24
:1029F0001FE72DE9FF4F91B080460F469146DDE974
:102A00001EA600200F900E9000BF00BF00210A916B
:102A10000B91CDF824800897079083460690059087
:102A2000B448007810F0020F02D015B0BDE8F08F66
:102A3000B24503DACDF83CA0B2460F9E484600F0FE
:102A4000CFFECDE90201209800F0CAFECDE90001D9
:102A5000DDE9022300F0F8FCCDE90C01AAEB060049
:102A600000F0A7FECDE90201149800F0B9FECDE90F
:102A70000001DDE9022300F0E7FC04460D460020DA
:102A80000E903CE00AA80FC800F02CFCCDE90A012A
:102A9000DDE90A0100F030FE219951F820B00E98CE
:102AA00040440690B34512DBD34510DAABEB060089
:102AB00000F07FFE22462B46CDE9000100F0E0FE4B
:102AC000CDE9020100F048FE3844059007E0B34527
:102AD00001DA059703E014983844401E059001235D
:102AE0000093DDE90532DDE90810FEF722FC0698C7
:102AF0000990059808900E98401C80B20E900E9890
:102B00004845BFD30123009314983844431E08EB73
:102B10000900421E39464046FEF7B3FC002E14DA87
:102B2000704200F046FE22462B46CDE9000100F03F
:102B3000A7FECDE9020100F00FFE38440790012204
:102B400008F101000799FEF78CF800BF6DE72DE949
:102B5000FF4705460E4617469846DDE90C9A0E9C3F
:102B60006448007810F0020F01D0BDE8FF8722888A
:102B70006368CDE9009ACDE9022343463A463146DF
:102B80002846FFF736FF00BFEFE730B50A460023BF
:102B9000012100BF00BF09E0446854F821404568A6
:102BA00045F823405C1CA3B24C1CA1B204888C42A3
:102BB000F2DC0488641E456845F8242030BD2DE908
:102BC000FF4F89B080468A4615461C46DDE917B995
:102BD00000200890079006900590002600270AEB39
:102BE00004000490002003904248007810F0020F87
:102BF00002D00DB0BDE8F08F0121199821EAD01064
:102C000003905D450BD34C4509D3039BCDE900935D
:102C10005B4651464046169AFEF729FD58E0284685
:102C200001F0C8F90290584601F0C4F901900299E8
:102C300001F0DEF80890204601F0BCF90290484609
:102C400001F0B8F90190029901F0D2F8079000273D
:102C50003CE0384601F0AEF90190089901F0BEF968
:102C6000029001F087F980B2069000262AE03046F3
:102C700001F0A0F90190079901F0B0F9029001F07C
:102C800079F980B205905B46CDF80090169ADDE99F
:102C90000510FEF7D8FC38B1049A911B08EB070029
:102CA000039AFDF7DEFF0BE0039B0BB9012300E065
:102CB0000023DAB2049B991B08EB0700FDF7D1FF54
:102CC000701C86B2A642D2D3781C87B2AF42C0D362
:102CD000199810F0400F0BD001230AEB0400009369
:102CE000431E08EB0500421E51464046FEF7C9FB55
:102CF00000BF7EE7BD000020A24A0A400243A24B6B
:102D00001A6070470146072323EA010212029F4B13
:102D100018684FF6FF0300EA03009D4B40EA0300EA
:102D200040EA02004FF0E023C3F80C0D704700B5F5
:102D3000002098490861C86014204861002088611B
:102D4000C8610846006840F0010008600846406815
:102D5000914908408F494860084600688F490840FB
:102D60008C4908600846006820F480200860084606
:102D7000406820F4FE0048600020886000214FF089
:102D80000060FFF7B9FF00BD10B58548006840F04E
:102D900004004FF0E021C1F8100D7E48C06940F0FA
:102DA00080507C49C8610846C06940F00060C86135
:102DB0007C48406840F480707A4948600846006862
:102DC00040F0040008600846006840F00200086017
:102DD000FDF71EFA10BD6E48001D6C490860704773
:102DE0002DE9F0478046894614461D462046E117E6
:102DF00004EB91714FEAA10AE11704EB917189107C
:102E0000A4EB8101CFB2042000EBC700C7B2284673
:102E1000FFF778FFC5F1040008FA00F60F202841FB
:102E200000EA0900064306F00F06202C0CDA5E4883
:102E300000684FF0010101FA04F140EA01004FF08F
:102E4000E021C1F800010DE058480068A4F120011C
:102E50004FF0010202FA01F240EA02004FF0E021D5
:102E6000C1F80401524850F82A0006FA07F1084355
:102E70004F4941F82A00BDE8F08770B5034608467F
:102E8000CE1701EB9676B410CE1701EB9676B610FE
:102E9000A1EB8606B606350E3E48806940F001007B
:102EA0003C4EB0614FEAB63050F8240003FA05F604
:102EB0000643404840F824603F4800684FF0010650
:102EC00006FA01F640EA06003C4EC6F8000412F08D
:102ED000010F0AD03A4800684FF0010606FA01F6E1
:102EE00040EA0600354EC6F80C0412F0020F0AD074
:102EF000344800684FF0010606FA01F640EA060081
:102F00002E4EC6F8080470BD10B50024FFF70FFF61
:102F10002048006840F480301E49086000BF1D480A
:102F20000068400CFBD04FF480601A4948600846A6
:102F3000406840F4E01048600846406840F4803043
:102F400048602148006840F032001F49086011487D
:102F5000006840F080700F49086000BF0D480068AD
:102F6000400EFBD00B48406840F002000949486021
:102F700005E008484068C0F3870404F00304022C0D
:102F8000F7D110BD80FFFF1F08ED00E00CED00E061
:102F90000000FA05001002400000FFF8FFFFF6FEF7
:102FA00010ED00E00070004000E100E004E100E00E
:102FB00000E400E00800014000040140000001407E
:102FC0000C04014008040140002002404FF0E021C1
:102FD000096921F004014FF0E0221161C21700EBF2
:102FE0005272D2101F4B1A70194609784FF47A7238
:102FF00051431D4A1180704701461A4A12784A43CC
:103000004FF0E0235A6100229A6101221A6100BF49
:103010004FF0E022106910F0010F02D010F4803F51
:10302000F6D000224FF0E0231A619A617047014602
:103030000D4A12884A434FF0E0235A6100229A61F8
:1030400001221A6100BF4FF0E022106910F0010F59
:1030500002D010F4803FF6D000224FF0E0231A6136
:103060009A61704742010020440100200348004754
:1030700003480449044A054B704700003101000829
:10308000F0050020F00D0020F0090020F0090020DC
:1030900040EA0103024630B59B0710D14FF00134DE
:1030A00000E008C208C91D1B9D4315EAC41FF8D0E3
:1030B00013F0FF0102F8011B0DD01B0AF8E711F80D
:1030C000013B002B02F8013B05D011F8013B002B1E
:1030D00002F8013BF3D130BD10B5431C02E010F8FB
:1030E000011B71B18107FAD14FF0013202C88C1A6D
:1030F0008C4314EAC211F9D0C01A0A0603D0C01ECC
:1031000010BDC01A10BD0A0401D0801E10BD0902F6
:10311000FCD0401E10BD4FF000020429C0F0128008
:1031200010F0030C00F01B80CCF1040CBCF1020F7A
:1031300018BF00F8012BA8BF20F8022BA1EB0C014F
:1031400000F00DB85FEAC17C24BF00F8012B00F845
:10315000012B48BF00F8012B70474FF0000200B56B
:10316000134694469646203922BFA0E80C50A0E8AA
:103170000C50B1F12001BFF4F7AF090728BFA0E858
:103180000C5048BF0CC05DF804EB890028BF40F824
:10319000042B08BF704748BF20F8022B11F0804F66
:1031A00018BF00F8012B704710B5044610F0030F4C
:1031B00008BF11F0030F40F015804FF0013E121FC1
:1031C000C0F20E8051F8043BA3EB0E0C2CEA030C6A
:1031D0001CEACE1C08BF40F8043BF0D0A1F104016A
:1031E00002F10402521E08DB11F8013B002B00F82B
:1031F000013BF7D11146FFF78EFF204610BD704707
:1032000070477047754600F029F8AE4605006946DC
:10321000534620F00700854618B020B5FFF728FF79
:10322000BDE820404FF000064FF000074FF00008C7
:103230004FF0000B21F00701AC46ACE8C009ACE848
:10324000C009ACE8C009ACE8C0098D467047044627
:10325000AFF300802046FCF7D4FF00000048704721
:103260009005002001487047704700BF940500207A
:1032700001491820ABBEFEE726000200704700009F
:1032800021F00042A2F16052B2F5801F01F000432C
:1032900028BFD2F17F6C0BD95FEA001C43EAC2025F
:1032A00042EB507018BF704728BF20F001007047F4
:1032B000B2F5801FBCBF184670474FEA410C1CF5A1
:1032C000001F02D2084600F057BF70B500F082FB25
:1032D00000000089FFF7F6BF4FF00040A0F5800026
:1032E0007047000010B591EA030F48BF83F0004318
:1032F00000F10E84841A71EB030E05D2121943EB10
:103300000E03001B61EB0E01DFF820C14FEA1154E0
:10331000A4EB135E1CEA430F18BF9CEA445F71D014
:1033200023EA0C03DEF1200C21EA045143F480135C
:1033300032D322FA0EFC10EB0C0023FA0EFC41EB08
:103340000C01CEF1200C03FA0CFC10EB0C0051F137
:103350000001B1F5801FCEF1200C32D201EB0451F7
:10336000BDE8104012FA0CF258BF7047401C38BF3D
:103370005FEA420218BF7047002814BF20F0010026
:1033800041F100014FEA410313F5001F38BF7047B8
:10339000A1F1C04100F06CBB012A43EB0302AEF186
:1033A000200EDEF11F0C32BF4FF0000C23FA0EF39B
:1033B00010EB030041EB0451B4EB115FD0D0A1EB53
:1033C000045101F58011490801EB0451BDE810409A
:1033D0005FEA30000CD350F1000038BF12FA0CFC49
:1033E00006D1C9E7401C38BF5FEA4202CAD1C3E731
:1033F0004FEA410313F5001F38BF7047A1F1C041E8
:1034000000F036BB9CEA445F08D0BDE8104011EAEA
:103410005C0F04BF01F0004100207047BDE8104080
:1034200070B500F0D7FA00BF64FBBE3E0000E0FFBD
:10343000491058BFC1F140415B1058BFC3F1404330
:103440008B42EFF3008070472DE9C04130B4DFF8C4
:10345000A0C23CEA111418BF3CEA131400F0EC803F
:1034600081EA03051CEA111444EAD57418BF1CEA6A
:10347000131500F0C780A4EB05044FF0004545EAA2
:10348000C12145EAC32341EA505143EA525304F1B2
:103490007F74994204F500344FEAC0204FEAC222FB
:1034A00008BF904200F09C804FEA13650FF240166F
:1034B000765D4FEA134506FB05F7C7F1807706FBFB
:1034C00007F74FEAD737A7FB03687642C8F580387D
:1034D000A7FB06CE38BFA8F1010807FB08E64FF0AE
:1034E000000EA6FB028CE6FB03CEDCF1000CCEF155
:1034F000004E38BFAEF1010EA6FB0C584FF000078E
:103500004FF00005E6FB0E87A1FB08C6A0FB07CE27
:1035100016EB0E0645F10005E1FB076515F1E04EDF
:103520007EBFA4F580345FEA46066D4116F1800740
:1035300045F100054FEA17274FEA066647EA056797
:10354000A6F1DE46B6F1805F4FEA15251FD9384651
:1035500024F0010C05EBC471BCF1FE6F01EB0C1102
:1035600002D8F0BCBDE8008124425CBF01F5801E9A
:103570009EEAC47F02D4F0BCBDE80081244238D466
:10358000F0BCA1F1C041BDE8004100F071BA4FEAC2
:10359000D22242EA43524FEAD323A7FB02864FEAE4
:1035A000D02040EA415007FB03661EEA0E0F4FEAA7
:1035B000D12105FB026658BFA6EB0056B6EB0056BC
:1035C0004FEA520E4EEAC37E18EB0E0E56EB530E28
:1035D000BDD518EB02085E417F1C55F10005B6E72A
:1035E0004FF480154FF000074FF000064FF0000831
:1035F000ADE7F0BC4FF0000001F1C04101F0004127
:10360000BDE8008111EA0C1F0CEA131500D00CE094
:1036100013EA0C1F00F025804FF00000F0BC81EA97
:10362000030101F00041BDE80081F0BCBDE80041AC
:1036300081EA030100F01CBAF0BCBDE8004170B59E
:1036400000F0C8F9097EFC3E00F007B881EA0301EA
:103650004FF0000001F00041704781EA030100F0E3
:1036600007BAF0BCBDE800414FF0000021497047A7
:10367000FFFDFBF9F7F5F4F2F0EEEDEBE9E8E6E437
:10368000E3E1E0DEDDDBDAD8D7D5D4D3D1D0CFCDBE
:10369000CCCBCAC8C7C6C5C4C2C1C0BFBEBDBCBBF7
:1036A000BAB9B8B7B6B5B4B3B2B1B0AFAEADACABF2
:1036B000AAA9A8A8A7A6A5A4A3A3A2A1A09F9F9ECC
:1036C0009D9C9C9B9A99999897979695959493937E
:1036D000929191908F8F8E8E8D8C8C8B8B8A898915
:1036E0008888878786858584848383828281818098
:1036F0000000FF070000F87F4FEA41034FEA5353F1
:10370000A3F58063D3F11E03C8BFD3F1210C0CDDF8
:103710004FF0004242EAC12242EA505232FA03FC20
:103720008CEAE17CACEBE1707047102BC4BF002049
:10373000704703F5787CBCF1FF3F04D06FF0004286
:1037400082EA2100704770B500F044F94992248064
:1037500000207047F2E700004FEA1153A3F58063A1
:10376000D3F11E03A8BFD3F1200C08DB4FF00042B9
:1037700042EAC12252EA505232FA03F0704709423B
:103780000BD4102BC4BF0020704703F5787CBCF12C
:10379000FF3F05D04FF0FF3070474FF000007047FB
:1037A00070B500F017F900BF4992248000207047DF
:1037B000F0E710F0004248BF4042B0FA80F310FA40
:1037C00003F10AD0C3F11D0303F580634FEA4150B2
:1037D00002EB035202EBD12170474FF0000070471B
:1037E000B0FA80F310FA03F10AD0C3F11D0303F518
:1037F00080634FEA41504FEA035202EBD1217047F8
:103800004FF000007047000051EA030C17D41CF57C
:10381000801F58BFBCF5801F00F10680994218BF79
:10382000704708BF9042704707D711F5801F58BFF7
:1038300013F5801F19D499427047894270471CF5CF
:10384000801F08D5BCF5801FF7D58B4218BF704785
:1038500008BF824270474FF4001C1CEB410F38BF79
:103860001CEB430F01D28B42704770B500F0B2F8E9
:10387000922449004FF000514FF08053FFF7D8BD1C
:10388000DFF848C170B51CEA111E1EBF1CEA1315F3
:103890009EEA0C0F95EA0C0F00F06F8081EA03049A
:1038A00023EA4C134EEAD47E21EA4C1141F48011F4
:1038B00043F48013AE44A1FB024CA0FB0365AEF1C0
:1038C0007F7E361955EB0C05A1FB034C4CF1000330
:1038D000A0FB021C16EB0C06654153F100030942E4
:1038E00018BF46F0010613F4007F0BD14FEA0331F5
:1038F0004FEA0530340341EA155140EA16506FF0A3
:1039000003020AE04FEAC3214FEAC520F40241EA6C
:10391000555140EA56506FF0020202EB2E4201EB85
:10392000025585EACE710AD05FEA440C18BF24F034
:10393000004450F1000041F1000120EAD47040F24F
:10394000FE7C624500D270BDA84214BF4FF0804497
:103950004FF04044002E08BF0024BEF1806FA8BF86
:10396000A1F1C041BDE8704080F282804FF00000BC
:1039700001F1C04101F0004170479EEA0C0F0CEAD2
:10398000131518BF95EA0C0F06D04FF0000081EA1E
:10399000030E0EF0004170BD00F01CF88900013EDE
:1039A00000F007B800F009B84FEA430C5FEA5C5C2E
:1039B00008D081EA030100F05BB84FEA410C5FEAEE
:1039C0005C5CF6D14FF00000014970470000FF0732
:1039D0000000F87F0EF1020E2EF0030E5EF8046B6D
:1039E000364205D4012A43EB030515F5001F12D812
:1039F000012841EB010C1CF5001F0CD80ED14FEA39
:103A0000D17C15F5001F0CEB4C0C0CF1020C08BF1F
:103A10004CEBD37C04E04FF0080C01E04FEAD37C80
:103A20000CEB4C0526FA05F606F00706B6F1040C79
:103A300006D20EEB860CBDE870404CF0010C6047DE
:103A4000DFE80CF0090B02024FF000414FF00000DC
:103A5000A1F5002170BD19461046012851EB010463
:103A600018BFD4F5001484BF002001F0004170BDE0
:103A70000808A0F500114FEA3101704753EA010C24
:103A800017D41CF5801F58BFBCF5801F00F10680BD
:103A90008B4218BF704708BF8242704707D713F5A3
:103AA000801F58BF11F5801F19D48B4270479B426D
:103AB00070471CF5801F08D5BCF5801FF7D59942CB
:103AC00018BF704708BF904270474FF4001C1CEBB2
:103AD000430F38BF1CEB410F01D2994270470FB41E
:103AE0000CBC03BCFFF7C1BE91EA030F10B581F017
:103AF00000413FF5FFAB83F0004300F009B8000040
:103B000010B591EA030F48BF83F000433FF5F2ABD5
:103B1000841A71EB030E07D212198EF0004E43EB9C
:103B20000E03001B61EB0E01DFF8A4C14FEA115434
:103B3000A4EB135E1CEA430F18BF9CEA445F00F03D
:103B4000B08023EA6C03524221EA0451C3EB6C03B8
:103B500038BF5B1EDEF1200C25D322FA0EFC10EBE1
:103B60000C0043FA0EFC41EB0C01CEF1200C03FAE1
:103B70000CFC10EB0C0051F10001CEF1200C29D40B
:103B800001EB0451BDE8104012FA0CF258BF704727
:103B9000401C1CBFB2F1004F704700280CBF491CED
:103BA00020F00100704712EB020C43EB030218BF38
:103BB0004FF0010C4CEA4202AEF1200EDEF11E0C79
:103BC00054D943FA0EFC10EB0C0051F1FF31CEF149
:103BD0001E0CD5D50CF1010C12FA0CFC404141EB46
:103BE000010101EB445E5FEA5E5E10D901EB045116
:103BF000BDE8104010EBDC7038BFBCF1004F18BFBF
:103C0000704700280CBF491C20F00100704730D2DB
:103C10004FEAD42E11F5001124F400641BD0B1FA40
:103C200081F20B3AA41AA41ED2F12003914030FA7B
:103C300003F31943904001EBCE71002C01EB0451CA
:103C4000BDE81040A8BF704701F1C0414FF000002F
:103C500001F000417047B0FA80F310FA03F100D18F
:103C600010BDE41A173C4805C90AE4E701EB04510A
:103C700010BD491001EB0451BDE810404FEA30007F
:103C800002E04FF0000170474A0008BF0042F8D040
:103C9000B2F5001F28BF704701F000414FF000004F
:103CA00070479CEA445F07D0BDE8104011EA5C0F02
:103CB00004BF002100207047BDE8104070B5FFF739
:103CC00089FE00BF40DFF63E83F00041104670479A
:103CD0000000E0FF43004FEAD30C4FEA3C0C4340A6
:103CE0001FBF40070CF1605113F0FE4F70471CF0EE
:103CF000006F03D100200CF0004170470CF000432E
:103D000043EA507010B540EACC0000F0E8F900BF7B
:103D1000000000924FEA0001FFF7AABE4FF00041F9
:103D20004FF00000A1F500217047000090EA010F5C
:103D300048BF81F0004100F13682421A3CBF801A30
:103D400089184FEAD0524FF07F4C1CEA410FA2EB8A
:103D5000D15318BF9CEA026F00F03B804FF0004C3B
:103D60004CEA00204CEA012121FA03FC10EB0C0C78
:103D70001ED202F1FF325FEA1C2040EBC25038BF76
:103D800070471CF07F0F4FEA400C18BFBCF17F4F0B
:103D900038BF7047C3F12003994008BF20F00100ED
:103DA000BCF17F4F38BF7047A0F1C04000F0E4B9CC
:103DB0004FEA3C00000A40EBC25028BF1CF0FF0F46
:103DC0004FEA400CE6D018BFBCF17F4F38BF7047B8
:103DD000EAE79CEA026F05D010EA5C0F08BF00F02A
:103DE0000040704710B500F07AF900BF64FBBE3E9A
:103DF0004FF47F0C1CEAD0121EBF1CEAD11392EACA
:103E00000C0F93EA0C0F00F0858090EA010F48BF79
:103E100042F4807240F4000C41F400002CF07F4129
:103E200020F07F4000B58142A2EB03020FF2081C94
:103E3000ACEB504EC0F100009EF800E04FEA4E0E91
:103E400000FB0EFC38BF49004FEA2C1C02F5FA02B9
:103E50000CFB0EF34FEACE1E4FEA112C4FEAC121A4
:103E60000EEB635E42EB22420EFB0CFC4FEA1C534E
:103E700000FB03114FEA112C4FEA01310EFB0CFC41
:103E80004FEADC4C00FB0C11C14228BF09184CEB77
:103E900003335DF804EB10EB410143EBC250B2F584
:103EA0007C0F38BF704729D512F0F00F1CBF00F10E
:103EB000C04000F00040704700818283848586877F
:103EC00088898B8C8D8E8F919293959697999A9CD9
:103ED0009D9FA0A2A3A5A7A8AAACAEB0B2B3B5B748
:103EE000B9BCBEC0C2C5C7C9CCCED1D4D7D9DCDF1E
:103EF000E2E6E9ECF0F3F7FAFE0000004FEA400CCE
:103F00000CF1807CBCF17E4F28BF7047B0F1C040FF
:103F100000F032B990EA010F0CEAD11348BF42F425
:103F20008072624538BF634507D213F47F0F16D005
:103F300080EA010000F00040704710B500F0CFF8B3
:103F4000097EFC3E00F005B880EA010000F0004068
:103F5000704780EA010000F0004000F00DB912F453
:103F60007F0F04BF0248704780EA010000F004B9E7
:103F70000000C07FC10DD1F19E0206DB4FEA002395
:103F800043F0004323FA02F07047004207D54FEA9E
:103F90004001B1F1FE4F02D24FF00000704710B562
:103FA00000F09DF849922480002070476FEA2000BD
:103FB00070470000B0FA80F310FA03F2C3F19D03DA
:103FC0000AD0D90501EB1220530638BF704700F123
:103FD000010008BF20F00100704700004FF47F0C83
:103FE0001CEAD0121EBF1CEAD11392EA0C0F93EA0E
:103FF0000C0F00F0478090EA010F48BF42F4807236
:104000004FF0004C4CEA00204CEA012102EB030285
:10401000A0FB0113A2F50002002918BF43F0010321
:104020005B0028BF4FEA330342EB22425FEA132CC6
:104030004CEBC2502EBFBCEB436FB2F57C0F704708
:104040004FEA036CBCF1004F08BF20F00100B2F54D
:104050007C0F38BF70470BD582F0FF0212F5803F0E
:10406000C8BF704700F1C040D8BF00F000407047A3
:1040700000F5000C5FEA4C0C48BF7047B0F1C0403F
:1040800000F07AB890EA010F0CEAD11348BF42F46D
:104090008072624538BF634504D280EA010000F0B7
:1040A0000040704710B500F01AF800BF8900013ECB
:1040B00000F007B800F009B85FEA410C5FEA1C6C39
:1040C00008D080EA010000F057B85FEA400C5FEAD0
:1040D0001C6CF6D14FF00040A0F5800070470EF147
:1040E000020E2EF0030E5EF8044B244204D44FEA75
:1040F0004102B2F17F4F11D84FEA4003B3F17F4F35
:104100000CD80ED14FEAD07CB2F17F4F0CEB4C0CA7
:104110000CF1020C08BF4CEBD17C04E04FF0080C12
:1041200001E04FEAD17C0CEB4C0324FA03F404F0D9
:104130000704B4F1040C06D20EEB840CBDE8104069
:104140004CF0010C6047DFE80CF0070802024FF06A
:104150000040A0F5800010BD0846420018BFD2F113
:10416000807288BF00F0004010BD10B5FFF77AF8EC
:104170004FF00001016010BDFF2141EAD050C005A1
:10418000704780F0004090EA010F7FF5D6AD81F0D6
:10419000004100F008B8000090EA010F48BF81F02C
:1041A00000413FF5CAAD421A04D882F00042A0EBAC
:1041B000020011444FEAD0524FF07F4C1CEA410FED
:1041C000A2EBD15318BF9CEA026F4AD04FF0004CCB
:1041D0004CEA00204CEA012121FA03FCB0EB0C0C64
:1041E0000FD412F0FE0F36D05FEA4C001DD500123E
:1041F00040EBC25038BF70471CF03F0F18BF7047EC
:104200000BE0A2F101025FEA1C2040EBC25038BF74
:1042100070471CF07F0F18BF7047C3F1200399400F
:1042200014BF401E20F00100704780084FEA12239F
:1042300008BF7047B0FA80FCA2EB0C02CCF1280C4E
:1042400060FA0CF093EA122F04BF00EBC2507047E3
:104250004FEAC3707047130A5FEADC1008BF70476B
:10426000F6E79CEA026F04D010EA5C0F08BF00205A
:10427000704710B5FFF733FF40DFF63E81F0004096
:1042800070470000000000000000808080808000F7
:104290008000A0A0A000000000005050F850F8508E
:1042A00050002078A07028F02000C0C8102040984E
:1042B00018006090A040A8906800C04080000000F6
:1042C000000020408080804020008040202020404E
:1042D0008000005020F820500000002020F820200E
:1042E00000000000000000C04080000000F8000056
:1042F00000000000000000C0C00000081020408046
:104300000000708898A8C8887000206020202020B5
:104310007000708808304080F80070880830088885
:10432000700010305090F8101000F880F0080888E5
:104330007000304080F088887000F80810204040FD
:1043400040007088887088887000708888780810AD
:10435000600000C0C000C0C000000000C0C000C0BD
:10436000408010204080402010000000F800F8003D
:10437000000080402010204080007088081020003D
:10438000200070880868A8A87000708888F888885D
:104390008800F08888F08888F000708880808088A5
:1043A0007000E09088888890E000F88080F080803D
:1043B000F800F88080F08080800070888080988885
:1043C0007800888888F888888800E040404040402D
:1043D000E00038101010109060008890A0C0A090ED
:1043E0008800808080808080F80088D8A8A888888D
:1043F00088008888C8A898888800708888888888F5
:104400007000F08888F08080800070888888A8908C
:104410006800F08888F0A090880070888070088814
:104420007000F82020202020200088888888888834
:1044300070008888888888502000888888A8A8A864
:10444000500088885020508888008888502020207C
:104450002000F80810204080F800E08080808080F4
:10446000E0000080402010080000E02020202020F4
:10447000E000205088000000000000000000000064
:10448000F8008040200000000000000070087888DC
:1044900078008080B0C88888F0000000609080902C
:1044A0006000080868988888780000007088F880A4
:1044B0007000205040E0404040000000788888783C
:1044C00008708080B0C88888880040004040404024
:1044D000400020006020202020C0808090A0C0A04C
:1044E0009000C04040404040E0000000D0A8A888B4
:1044F00088000000B0D090909000000060909090F4
:1045000060000000E09090E080800000709090706B
:1045100010100000506040404000000070806010AB
:10452000E0004040E04040406000000090909090EB
:104530007000000088888850200000008888A8A8A3
:10454000500000008850205088000000909090702B
:1045500010600000F8102040F800204040804040EB
:1045600020002020202020202000804040204040AB
:1045700080006890000000000000FCFCFCFCFCFCDB
:10458000FC00002070A820200000002020A870203F
:10459000000000102078201000000020107810206B
:1045A00000000050487C08100000002040F8482817
:1045B000000000E0F0F8F0E000000010181C1810F7
:1045C00000000080402040803C000000000000000F
:1045D000A8006162636465666768696A6B6C6D6E8A
:1045E0006F707172737475767778797A004142438F
:1045F0004445464748494A4B4C4D4E4F5051525303
:104600005455565758595A003031323334353637AD
:1046100038392B2D2A2F3D2528295B5D7B7D3C3E9B
:10462000267C7E5E00202E2C3A3B5F3F21402324D7
:1046300027225C00000A0D746573740053594D42C3
:104640004F4C004354524C004E554D42455200557C
:1046500050504552004C4F57455200007C460008D0
:1046600000000020480100006C01000824470008F9
:1046700048010020A80C0000C8010008C1133746FB
:1046800042081315024C080D040C1B101110590C94
:104690002320215A1D0C2330315A250C2340415A26
:1046A0002D0C2350515A350C2360615A3D0C237058
:1046B000715A450C2380811A184F1A24041A3004A9
:1046C0001A3C041A48041A54041A60041A6C045A56
:1046D0004D2C419A550C4114010608CB82421479A5
:1046E0002C19C4321A4BD245205A4F105AED101AC9
:1046F0004810321C5A08EC1A3C08320E5A25101A7F
:10470000430832032A341022051ACC8C1ADC041A0E
:10471000EC041AFC04130C011B201C04134805C2F2
:044720002000000075
:0400000508000131BD
:00000001FF
